S01700004763634170706C69636174696F6E312E737265635B
S11300000C9434000C943E000C943E000C943E007E
S11300100C943E000C943E000C943E000C943E0064
S11300200C943E000C943E000C943E000C943E0054
S11300300C943E000C943E000C943E000C943E0044
S11300400C943E000C943E000C943E000C943E0034
S11300500C943E000C943E000C943E000C943E0024
S11300600C943E000C943E0011241FBECFEFD8E048
S1130070DEBFCDBF0E9440000C94E7000C9400004A
S1130080399A41983A9A42983B9A43983C9A4498B0
S11300903D9A459898B182E0892788B92FEF34E3D7
S11300A06CE0215030406040E1F700C0000024E0E3
S11300B052E098E080E140E238B1322738B97FEF6E
S11300C034E36CE0715030406040E1F700C0000060
S11300D038B1352738B938B1392738B97FEF34E327
S11300E06CE0715030406040E1F700C0000038B16E
S11300F0322738B938B1382738B97FEF34E36CE0A8
S1130100715030406040E1F700C0000038B1392739
S113011038B938B1342738B97FEF34E36CE0715023
S113012030406040E1F700C0000038B1382738B9EA
S11301307FEF34E36CE0715030406040E1F700C081
S1130140000038B1382738B97FEF34E36CE07150E0
S113015030406040E1F700C0000038B1342738B9BE
S113016038B1392738B97FEF34E36CE0715030404F
S11301706040E1F700C0000038B1382738B938B121
S1130180322738B97FEF34E36CE07150304060407F
S1130190E1F700C0000038B1392738B938B1352744
S11301A038B97FEF34E36CE0715030406040E1F7E0
S11301B000C0000038B1322738B97FEF34E36CE077
S11301C0715030406040E1F700C0000075CFF894F2
S10501D0FFCF5B
S9030000FC
