S01700004763634170706C69636174696F6E312E737265635B
S11300000C9434000C9451000C9451000C94510045
S11300100C9451000C9451000C9451000C94510018
S11300200C9451000C9451000C9451000C94510008
S11300300C9451000C9450050C9451000C945100F4
S11300400C94B6010C9451000C9403070C943107E2
S11300500C9451000C9451000C9451000C945100D8
S11300600C9451000C94510011241FBECFEFD8E022
S1130070DEBFCDBF13E0A0E0B1E0E4E3FFE002C0E7
S113008005900D92A237B107D9F723E0A2E7B3E0B8
S113009001C01D92A93DB207E1F70E9442010C94F0
S11300A098070C940000FC01408121E030E002C07C
S11300B0220F331F6A95E2F7242B20830895FC0155
S11300C0808121E030E002C0220F331F6A95E2F7FD
S11300D02095822380838081818128232183089530
S11300E0FC01908121E030E002C0220F331F6A95A9
S11300F0E2F72095292320830895FC01408121E023
S113010030E002C0220F331F6A95E2F7242B2083CC
S11301100895FC01408121E030E002C0220F331F2A
S11301206A95E2F7242720830895FC01808190E0FA
S113013002C0959587956A95E2F7817008955B9A58
S113014085E08A95F1F700005B980895CF93C82F56
S1130150662311F05A9A01C05A98549A559A569A9D
S1130160579A5F985E985D985C98CC230CF45F9ADC
S1130170C6FD5E9AC5FD5D9AC4FD5C9A0E949F000F
S11301805F985E985D985C98C3FD5F9AC2FD5E9A25
S1130190C1FD5D9AC0FD5C9A0E949F005C9A5D9AC5
S11301A05E9A5F9A87EB9BE00197F1F700C000002D
S11301B0CF91089560E00E94A6000895611104C0E3
S11301C080580E94DA00089580540E94DA0008954D
S11301D081E00E94DA00089561E00E94A60008957B
S11301E0CF93DF93EC012196FC018081882329F0D1
S11301F00E94EC0089918111FBCFDF91CF9108958A
S1130200CF93C82F529A559A539A549A559A569AFC
S1130210579A8FEF99EF0197F1F700C000005D9AAC
S11302205C9A0E949F008FE19EE40197F1F700C061
S113023000000E949F008FEF90E00197F1F700C04B
S113024000000E949F008FEF90E00197F1F700C03B
S113025000005C980E949F008FEF90E00197F1F7F7
S113026000C0000088E20E94DA0088E00E94DA0000
S11302700E94E80086E00E94DA008C2F0E94DA00D7
S1130280CF91089560E087E290E00E945F0061E012
S113029087E290E00E945F0062E087E290E00E94C3
S11302A05F0063E087E290E00E94530064E087E22D
S11302B090E00E94530065E087E290E00E945300C2
S11302C066E087E290E00E94530060E084E290E000
S11302D00E94530061E084E290E00E94530062E0D7
S11302E084E290E00E94530063E084E290E00E9484
S11302F0530064E084E290E00E94530065E084E2ED
S113030090E00E94530066E084E290E00E94530073
S113031067E084E290E00E9453008CE00E940001B8
S113032060E080E00E94DE0080E092E00E94F00045
S113033085B58A7F85BD85B5826085BDEEE6F0E032
S1130340808181608083E1E8F0E080818B7F80831D
S1130350808183608083EFE6F0E080818160808328
S113036087E690E00E945B077894FFCF1F920F927C
S11303700FB60F9211242F933F934F935F936F9374
S11303807F938F939F93AF93BF93CF93EF93FF93F9
S113039080917203813009F0C9C080917303811187
S11303A028C060E085E290E00E94700061E085E290
S11303B090E00E94700062E085E290E00E9470008C
S11303C063E085E290E00E94700064E085E290E0E2
S11303D00E94700065E085E290E00E94700066E093
S11303E085E290E00E94700067E085E290E00E9460
S11303F07000E0917303F0E0E050FF4FC0818C2F58
S113040090E08F579109181619063CF467E085E2CD
S113041090E00E947D00C05805C067E085E290E04E
S11304200E9470008C2F90E0CF97181619063CF4A8
S113043066E085E290E00E947D00C05405C066E05D
S113044085E290E00E9470008C2F90E04F97181680
S113045019063CF465E085E290E00E947D00C052FC
S113046005C065E085E290E00E9470008C2F90E06A
S11304700F97181619063CF464E085E290E00E9498
S11304807D00C05105C064E085E290E00E947000E8
S11304908C2F90E00797181619063CF463E085E268
S11304A090E00E947D00C85005C063E085E290E0C2
S11304B00E9470008C2F90E00397181619063CF4E4
S11304C062E085E290E00E947D00C45005C062E0D5
S11304D085E290E00E947000CC2341F061E085E267
S11304E090E00E947D00C33061F005C061E085E2C8
S11304F090E00E94700060E085E290E00E947D0040
S113050005C060E085E290E00E9470008091730372
S11305108F5F8F3F19F08093730308C010927303A9
S113052080917203823009F09BC209C080917203EA
S1130530823009F068C080917303811128C060E0A3
S113054085E290E00E947D0061E085E290E00E94F7
S11305507D0062E085E290E00E947D0063E085E238
S113056090E00E947D0064E085E290E00E947D00BE
S113057065E085E290E00E947D0066E085E290E01F
S11305800E947D0067E085E290E00E947D008091FA
S113059073038F5F80937303803841F560E085E2D5
S11305A090E00E94700061E085E290E00E9470009B
S11305B062E085E290E00E94700063E085E290E0F2
S11305C00E94700064E085E290E00E94700065E0A3
S11305D085E290E00E94700066E085E290E00E946F
S11305E0700067E085E290E00E94700080917303E0
S11305F08F3F09F02FC210927303809172038330EE
S113060009F082C010C080917203833009F07CC06D
S1130610809173038F3F19F41092730304C0809187
S11306207303811128C060E085E290E00E947000AD
S113063061E085E290E00E94700062E085E290E073
S11306400E94700063E085E290E00E94700064E024
S113065085E290E00E94700065E085E290E00E94EF
S1130660700066E085E290E00E94700067E085E239
S113067090E00E947000809173038F5F80937303F6
S113068060E085E290E00E9489008091730380FD20
S113069005C061E085E290E00E94890080917303C7
S11306A0837029F462E085E290E00E9489008091E1
S11306B07303877029F463E085E290E00E94890067
S11306C0809173038F7029F464E085E290E00E94C6
S11306D08900809173038F7129F465E085E290E0CD
S11306E00E948900809173038F7329F466E085E288
S11306F090E00E948900809173038F7729F467E06A
S113070085E290E00E94890080917203843009F0B0
S11307107AC0809173038F3F19F41092730302C05F
S1130720811128C060E085E290E00E947D0061E0D4
S113073085E290E00E947D0062E085E290E00E9404
S11307407D0063E085E290E00E947D0064E085E244
S113075090E00E947D0065E085E290E00E947D00CB
S113076066E085E290E00E947D0067E085E290E02B
S11307700E947D00809173038F5F8093730360E018
S113078085E290E00E9489008091730380FD05C09A
S113079061E085E290E00E94890080917303837098
S11307A029F462E085E290E00E948900809173035D
S11307B0877029F463E085E290E00E9489008091CB
S11307C073038F7029F464E085E290E00E9489004D
S11307D0809173038F7129F465E085E290E00E94B3
S11307E08900809173038F7329F466E085E290E0B9
S11307F00E948900809173038F7729F467E085E272
S113080090E00E94890080917203853009F07CC0D9
S113081080917303811128C060E085E290E00E941A
S1130820700061E085E290E00E94700062E085E281
S113083090E00E94700063E085E290E00E94700006
S113084064E085E290E00E94700065E085E290E05B
S11308500E94700066E085E290E00E94700067E00C
S113086085E290E00E947000809173038F5F809313
S1130870730388230CF43BC061E085E290E00E949E
S113088089008091730380FD05C062E085E290E0F9
S11308900E94890080917303837029F463E085E2E8
S11308A090E00E94890080917303877029F464E0CA
S11308B085E290E00E948900809173038F7029F48F
S11308C065E085E290E00E948900809173038F7156
S11308D029F466E085E290E00E9489008091730328
S11308E08F7329F467E085E290E00E94890080918B
S11308F073038F3749F481E080937303809172030B
S1130900863009F0B6C038C080917203863009F091
S113091064C0809173038F3F19F41092730304C071
S113092080917303811128C060E085E290E00E9409
S11309307D0061E085E290E00E947D0062E085E256
S113094090E00E947D0063E085E290E00E947D00DB
S113095064E085E290E00E947D0065E085E290E03D
S11309600E947D0066E085E290E00E947D0067E0E1
S113097085E290E00E947D0080917303853041F50B
S113098060E085E290E00E94700061E085E290E022
S11309900E94700062E085E290E00E94700063E0D3
S11309A085E290E00E94700064E085E290E00E949D
S11309B0700065E085E290E00E94700066E085E2E8
S11309C090E00E94700067E085E290E00E94700071
S11309D0809173038F5F80937303809172038750B8
S11309E0863008F04BC0809173038F3F19F4109246
S11309F0730302C0811128C060E085E290E00E9488
S1130A00700061E085E290E00E94700062E085E29F
S1130A1090E00E94700063E085E290E00E94700024
S1130A2064E085E290E00E94700065E085E290E079
S1130A300E94700066E085E290E00E94700067E02A
S1130A4085E290E00E947000809173038F5F809331
S1130A50730314C080917203833009F055CEDFCD47
S1130A6080917203833009F04FCED9CD8091730306
S1130A70C1CF8091720387508630C0F3FF91EF910C
S1130A80CF91BF91AF919F918F917F916F915F9122
S1130A904F913F912F910F900FBE0F901F9018957B
S1130AA01F920F920FB60F9211242F933F934F93DF
S1130AB05F936F937F938F939F93AF93BF93EF93C2
S1130AC0FF9363E088E290E00E947D0064E088E2A6
S1130AD090E00E94700065E088E290E00E9470005F
S1130AE066E088E290E00E94700060E086E290E0B8
S1130AF00E949500813021F4809372031092730355
S1130B0061E086E290E00E949500813029F482E061
S1130B10809372031092730362E086E290E00E9475
S1130B209500813029F483E080937203109273035B
S1130B3063E088E290E00E94700064E088E290E064
S1130B400E947D0065E088E290E00E94700066E00B
S1130B5088E290E00E94700060E086E290E00E94EB
S1130B609500813029F484E080937203109273031A
S1130B7061E086E290E00E949500813029F485E0EE
S1130B80809372031092730362E086E290E00E9405
S1130B909500813029F486E08093720310927303E8
S1130BA063E088E290E00E94700064E088E290E0F4
S1130BB00E94700065E088E290E00E947D0066E09B
S1130BC088E290E00E94700060E086E290E00E947B
S1130BD09500813029F487E08093720310927303A7
S1130BE061E086E290E00E949500813029F488E07B
S1130BF0809372031092730362E086E290E00E9495
S1130C009500813029F489E0809372031092730374
S1130C1063E088E290E00E94700064E088E290E083
S1130C200E94700065E088E290E00E94700066E037
S1130C3088E290E00E947D0060E086E290E00E94FD
S1130C409500813029F48AE0809372031092730333
S1130C5061E086E290E00E949500813029F48BE007
S1130C60809372031092730362E086E290E00E9424
S1130C709500813031F48CE08093720310927303F9
S1130C8020C080917203811104C08EE092E00E9422
S1130C908907809172038130A1F461E080E00E94B1
S1130CA0DE0083E292E00E94F00061E080E00E94B6
S1130CB0DE0084E392E00E94F00089E392E00E9467
S1130CC08907809172038230A1F461E080E00E9480
S1130CD0DE0083E292E00E94F00061E080E00E9486
S1130CE0DE0085E592E00E94F0008CE592E00E942F
S1130CF08907809172038330A1F461E080E00E944F
S1130D00DE0083E292E00E94F00061E080E00E9455
S1130D10DE008AE792E00E94F0008AE892E00E94F6
S1130D208907809172038430A1F461E080E00E941D
S1130D30DE0083E292E00E94F00061E080E00E9425
S1130D40DE0081EB92E00E94F00082EC92E00E94CF
S1130D508907809172038530A1F461E080E00E94EC
S1130D60DE0083E292E00E94F00061E080E00E94F5
S1130D70DE008AEE92E00E94F00083EF92E00E948F
S1130D808907809172038630A1F461E080E00E94BB
S1130D90DE0083E292E00E94F00061E080E00E94C5
S1130DA0DE0083E193E00E94F00080E293E00E9481
S1130DB089078091720387508630A0F461E080E057
S1130DC00E94DE0083E292E00E94F00061E080E095
S1130DD00E94DE008FE393E00E94F00080E593E040
S1130DE00E948907FF91EF91BF91AF919F918F91DD
S1130DF07F916F915F914F913F912F910F900FBE13
S1130E000F901F9018951F920F920FB60F921124F6
S1130E102F938F939F93EF93FF938091C000209122
S1130E20C6008C71E0917603EF5FEF7190917503CA
S1130E30E91739F0E0937603F0E0E758FC4F20839C
S1130E4001C082E090917403892B80937403FF9115
S1130E50EF919F918F912F910F900FBE0F901F9044
S1130E6018951F920F920FB60F9211248F939F9390
S1130E70EF93FF939091780380917703981769F02B
S1130E80E0917703EF5FEF73E0937703F0E0E756C9
S1130E90FC4F80818093C60005C0E1ECF0E08081C6
S1130EA08F7D8083FF91EF919F918F910F900FBE63
S1130EB00F901F9018951092780310927703109258
S1130EC076031092750399231CF422E02093C0004A
S1130ED090789093C5008093C40088E98093C10002
S1130EE086E08093C2000895209178032F5F2F73CA
S1130EF0909177032917E1F3E22FF0E0E756FC4FD6
S1130F00808320937803E1ECF0E080818062808329
S1130F100895CF93DF93EC018881882331F02196E3
S1130F200E94740789918111FBCFDF91CF910895BD
S1070F30F894FFCF5F
S1130F34808386898C909396999C9FA2A5A8ABAE36
S1130F44B1B3B6B9BCBFC1C4C7C9CCCED1D3D5D84B
S1130F54DADCDEE0E2E4E6E8EAEBEDEFF0F1F3F408
S1130F64F5F6F8F9FAFAFBFCFDFDFEFEFEFFFFFFC1
S1130F74FFFFFFFFFEFEFEFDFDFCFBFAFAF9F8F6A7
S1130F84F5F4F3F1F0EFEDEBEAE8E6E4E2E0DEDCBD
S1130F94DAD8D5D3D1CECCC9C7C4C1BFBCB9B6B3D2
S1130FA4B1AEABA8A5A29F9C999693908C89868395
S1130FB4807D7A7774706D6A6764615E5B5855529C
S1130FC44F4D4A4744413F3C393734322F2D2B2867
S1130FD4262422201E1C1A1816151311100F0D0C8A
S1130FE40B0A0807060605040303020202010101B1
S1130FF40101010102020203030405060607080AAB
S11310040B0C0D0F1011131516181A1C1E20222474
S113101426282B2D2F323437393C3F4144474A4D3F
S11310244F5255585B5E6164676A6D7074777A7D5C
S11310344F7574707574205369676E616C005761E1
S11310446974696E6720666F7220696E70757420A6
S11310540D0A0020202020202020202020202020D1
S11310642020200053696E65004F757470757420D8
S11310747369676E616C3A2053696E652077617693
S113108465200D0A00537175617265004F757470A3
S11310947574207369676E616C3A2053717561725B
S11310A4652077617665200D0A00526973696E675D
S11310B420536177746F6F7468004F75747075741E
S11310C4207369676E616C3A20526973696E672094
S11310D4736177746F6F74682077617665200D0A85
S11310E40046616C6C696E6720536177746F6F742A
S11310F468004F7574707574207369676E616C3A17
S11311042046616C6C696E6720736177746F6F74C9
S1131114682077617665200D0A00547269616E67F0
S11311246C65004F7574707574207369676E616CB7
S11311343A20547269616E676C6520776176652024
S11311440D0A0044697261632070756C73657300E1
S11311544F7574707574207369676E616C3A2044BA
S1131164697261632070756C736573200D0A0020C5
S11311742D2D2D2D204E6F6E65202D2D2D2D20000F
S11311844F7574707574207369676E616C3A202DA1
S11311942D2D2D204E6F6E65202D2D2D2D200D0A05
S10511A4000045
S9030000FC
