S01700004763634170706C69636174696F6E312E737265635B
S11300000C9434000C943E000C943E000C943E007E
S11300100C943E000C943E000C943E000C943E0064
S11300200C943E000C943E000C943E000C943E0054
S11300300C943E000C943E000C943E000C943E0044
S11300400C943E000C943E000C943E000C943E0034
S11300500C943E000C943E000C943E000C943E0024
S11300600C943E000C943E0011241FBECFEFD8E048
S1130070DEBFCDBF0E9440000C9440010C940000F0
S1130080259A2D9880E295B1982795B92FEF39E6F6
S113009098E1215030409040E1F700C000002FEF7C
S11300A039E698E1215030409040E1F700C000006B
S11300B095B1982795B92FEF39E698E12150304052
S11300C09040E1F700C0000095B1982795B92FEF53
S11300D039E698E1215030409040E1F700C000003B
S11300E095B1982795B92FEF39E698E12150304022
S11300F09040E1F700C0000095B1982795B92FEF23
S113010039E698E1215030409040E1F700C000000A
S113011095B1982795B92FEF39E698E121503040F1
S11301209040E1F700C0000095B1982795B92FEFF2
S113013039E698E1215030409040E1F700C00000DA
S113014095B1982795B92FEF39E698E121503040C1
S11301509040E1F700C0000095B1982795B92FEFC2
S113016039E698E1215030409040E1F700C00000AA
S113017095B1982795B92FEF39E698E12150304091
S11301809040E1F700C0000095B1982795B92FEF92
S113019039E698E1215030409040E1F700C000007A
S11301A095B1982795B92FEF39E698E12150304061
S11301B09040E1F700C0000095B1982795B92FEF62
S11301C039E698E1215030409040E1F700C000004A
S11301D02FEF39E698E1215030409040E1F700C01C
S11301E0000095B1982795B92FEF39E698E1215091
S11301F030409040E1F700C0000095B1982795B9D0
S11302002FEF39E698E1215030409040E1F700C0EB
S113021000002FEF39E698E1215030409040E1F79B
S113022000C0000095B1982795B92FEF39E698E101
S1130230215030409040E1F700C0000095B198276C
S113024095B92FEF39E698E1215030409040E1F71D
S113025000C000002FEF39E698E121503040904073
S1130260E1F700C0000095B1982795B92FEF39E662
S113027098E1215030409040E1F700C0000003CFE6
S1070280F894FFCF1C
S9030000FC
