S01700004763634170706C69636174696F6E312E737265635B
S11300000C9434000C9451000C9451000C94510045
S11300100C9451000C9451000C9451000C94510018
S11300200C9451000C9433010C9451000C94510025
S11300300C9451000C9451000C9451000C945100F8
S11300400C9401020C9451000C9451000C94510036
S11300500C9451000C9451000C9451000C945100D8
S11300600C9451000C94510011241FBECFEFD8E022
S1130070DEBFCDBF11E0A0E0B1E0ECEEF4E002C0E1
S113008005900D92AE33B107D9F721E0AEE3B1E0AC
S113009001C01D92A434B207E1F70E94FA000C9447
S11300A074020C940000299A85E08A95F1F7000007
S11300B029980895CF93C82F662311F0289A01C078
S11300C02898549A559A569A579A5F985E985D98CC
S11300D05C98CC230CF45F9AC6FD5E9AC5FD5D9ACC
S11300E0C4FD5C9A0E9453005F985E985D985C988A
S11300F0C3FD5F9AC2FD5E9AC1FD5D9AC0FD5C9A24
S11301000E9453005C9A5D9A5E9A5F9A87EB9BE02B
S11301100197F1F700C00000CF91089560E00E94BC
S11301205A00089561E00E945A000895611104C0C4
S113013080580E948E00089580540E948E00089575
S113014081E00E948E00089561E00E945A000895A3
S1130150CF93DF93EC012196FC018081882329F061
S11301600E94A40089918111FBCFDF91CF91089562
S1130170CF93C82F209A559A219A549A559A569AF1
S1130180579A8FEF99EF0197F1F700C000005D9A3D
S11301905C9A0E9453008FE19EE40197F1F700C03E
S11301A000000E9453008FEF90E00197F1F700C028
S11301B000000E9453008FEF90E00197F1F700C018
S11301C000005C980E9453008FEF90E00197F1F7D4
S11301D000C0000088E20E948E0088E00E948E0029
S11301E00E94A00086E00E948E008C2F0E948E0048
S11301F0CF9108958CE00E94B80080E40E948E00A4
S1130200C0E0D1E000E311E089910E949200C017A0
S1130210D107D1F780E80E948E0061E083E00E945C
S1130220960085E00E94A40060E081E00E949600B0
S113023080E391E00E94A800E1EBF0E08081876018
S11302408083E0E7F0E080818160808385B58D7FE5
S113025085BD85B5856085BDEEE6F0E08081816071
S113026080837894FFCF1F920F920FB60F921124C0
S11302700F931F932F933F934F935F936F937F93AA
S11302808F939F93AF93BF93EF93FF93CF93DF939A
S113029000D0CDB7DEB70091430180E290E29A83AB
S11302A08983909142019F5F963018F490934201A4
S11302B091C010924201809141018F5F809341016E
S11302C08A3030F081E0800F809343011092410125
S11302D0809141014AE0BE016F5F7F4F90E00E9430
S11302E03F0260E087E00E949600CE0101960E94E2
S11302F0A800809143018C3370F0809140018F5F9E
S1130300809340011092430160E084E00E949600D3
S113031080E30E94A400809143014AE0BE016F5F24
S11303207F4F90E00E943F02809143018A3028F081
S113033060E084E00E94960004C060E085E00E94D2
S11303409600009F80011124CE0101960E94A8000E
S11303500115110549F460E08BE00E94960088E3E2
S113036091E00E94A8000FC04AE0BE016F5F7F4F7A
S1130370C8010E943F0260E08BE00E949600CE011B
S113038001960E94A800809140018C3348F010929D
S1130390400160E081E00E94960080E30E94A40096
S11303A0809140014AE0BE016F5F7F4F90E00E9460
S11303B03F02809140018A3028F060E081E00E9491
S11303C0960004C060E082E00E949600CE0101968F
S11303D00E94A8000F900F90DF91CF91FF91EF91B1
S11303E0BF91AF919F918F917F916F915F914F9149
S11303F03F912F911F910F910F900FBE0F901F905F
S113040018951F920F920FB60F9211242F933F93BA
S11304104F935F936F937F938F939F93AF93BF9308
S1130420EF93FF9380E091E080933F0161E081E0EE
S11304300E94960080913F010E94A40080913E0199
S1130440863038F010923E0180913F018F5F809397
S11304503F0180913E018F5F80933E01FF91EF91B8
S1130460BF91AF919F918F917F916F915F914F91C8
S11304703F912F910F900FBE0F901F901895BB279F
S11304804A3031F4992322F4BDE2909581959F4F2F
S11304900C944B02BB27FB015527AA27880F991FF1
S11304A0AA1FA41710F0A41B83955051B9F7A05D9F
S11304B0AA3308F0A95DA193009779F7B111B1931C
S11304C01192CB010C946402DC01FC01672F719141
S11304D07723E1F7329704C07C916D937083629126
S10F04E0AE17BF07C8F30895F894FFCFCF
S11304EC000000000000000010101010101010107C
S11304FC18181818181818181C1C1C1C1C1C1C1C4C
S113050C1E1E1E1E1E1E1E1E1F1F1F1F1F1F1F1FF3
S111051C30303A30302E3000302020200000E5
S9030000FC
