S01700004763634170706C69636174696F6E312E737265635B
S11300000C9434000C9451000C9451000C94510045
S11300100C9451000C9451000C9451000C94510018
S11300200C9451000C9451000C9451000C94510008
S11300300C9451000C9441010C9451000C94510007
S11300400C9451000C9451000C942F020C945D02FA
S11300500C9451000C9456010C9451000C945100D2
S11300600C9451000C94510011241FBECFEFD8E022
S1130070DEBFCDBF11E0A0E0B1E0E6EFF5E002C0E5
S113008005900D92A236B107D9F721E0A2E6B1E0BE
S113009001C01D92A73AB207E1F70E94F6000C9442
S11300A0F9020C940000299A85E08A95F1F7000082
S11300B029980895CF93C82F662311F0289A01C078
S11300C02898549A559A569A579A5F985E985D98CC
S11300D05C98CC230CF45F9AC6FD5E9AC5FD5D9ACC
S11300E0C4FD5C9A0E9453005F985E985D985C988A
S11300F0C3FD5F9AC2FD5E9AC1FD5D9AC0FD5C9A24
S11301000E9453005C9A5D9A5E9A5F9A87EB9BE02B
S11301100197F1F700C00000CF91089560E00E94BC
S11301205A000895611104C080580E948E000895F9
S113013080540E948E00089581E00E948E000895EC
S113014061E00E945A000895CF93DF93EC01219659
S1130150FC018081882329F00E94A00089918111EB
S1130160FBCFDF91CF910895CF93C82F209A559A52
S1130170219A549A559A569A579A8FEF99EF019764
S1130180F1F700C000005D9A5C9A0E9453008FE171
S11301909EE40197F1F700C000000E9453008FEF26
S11301A090E00197F1F700C000000E9453008FEF28
S11301B090E00197F1F700C000005C980E945300A2
S11301C08FEF90E00197F1F700C0000088E20E94F1
S11301D08E0088E00E948E000E949C0086E00E94AF
S11301E08E008C2F0E948E00CF9108958CE00E9487
S11301F0B40060E080E00E9492008BE091E00E94F5
S1130200A40061E080E00E94920082E191E00E94FB
S1130210A400ECE7F0E080818064808380818F77A4
S1130220808380818E7F808380818D7F80838081A5
S11302308B7F80838081877F8083EAE7F0E0808101
S113024080688083808188608083808181608083EE
S1130250808182608083808184608083E1E8F0E033
S113026080818C7F8083808184608083EFE6F0E0EE
S113027080818160808387E690E00E948702789481
S1130280FFCF1F920F920FB60F9211248F93EF930B
S1130290FF93EAE7F0E0808180648083FF91EF912F
S11302A08F910F900FBE0F901F9018951F920F9271
S11302B00FB60F9211240F931F932F933F934F93D5
S11302C05F936F937F938F939F93AF93BF93EF93BA
S11302D0FF93CF93DF93CDB7DEB72A97DEBFCDBFB1
S11302E088E790E0FC01208131812AE0E0E0F1E040
S11302F0DE01119601900D922A95E1F7FC0100812F
S1130300118160E086E00E949200CE0101960E9475
S1130310A4004AE0BE016F5F7F4FC8010E94C4027F
S113032060E086E00E949200CE0101960E94A40043
S113033082E291E00E94B502CE0101960E94B502CC
S113034089E391E00E94B50240E1BE016F5F7F4FF7
S1130350C8010E94C40260E08DE00E949200CE01B8
S113036001960E94A40061E084E00E9492008CE364
S113037091E00E94A40061E084E00E949200093FA1
S1130380F3E01F0720F083E491E00E94A400C80179
S1130390865591094D9720F488E491E00E94A400C9
S11303A0C801835D9109CB9720F48BE491E00E940E
S11303B0A400C80189569140CB9720F480E591E0D0
S11303C00E94A4000A30110520F485E591E00E9402
S11303D0A400C801895592408F34910520F48BE51F
S11303E091E00E94A4004AE050E020E032E080E086
S11303F00217130718F0021B130B8F5F369527950E
S113040041505109A9F78F5F4AE0BE016F5F7F4FEA
S1130410817090E00E94C40261E08FE00E9492002B
S1130420CE0101960E94A4002A960FB6F894DEBF6E
S11304300FBECDBFDF91CF91FF91EF91BF91AF91EF
S11304409F918F917F916F915F914F913F912F91E8
S11304501F910F910F900FBE0F901F9018951F9230
S11304600F920FB60F9211242F938F939F93EF93B4
S1130470FF938091C0002091C6008C71E0916401CB
S1130480EF5FEF7190916301E91739F0E093640134
S1130490F0E0E959FE4F208301C082E090916201AF
S11304A0892B80936201FF91EF919F918F912F91FE
S11304B00F900FBE0F901F9018951F920F920FB6BA
S11304C00F9211248F939F93EF93FF939091660162
S11304D080916501981769F0E0916501EF5FEF7114
S11304E0E0936501F0E0E957FE4F80818093C600F8
S11304F005C0E1ECF0E080818F7D8083FF91EF9176
S11305009F918F910F900FBE0F901F90189510928E
S1130510660110926501109264011092630199239F
S11305201CF422E02093C00090789093C50080933F
S1130530C40088E98093C10086E08093C2000895D6
S1130540209166012F5F2F71909165012917E1F3C6
S1130550E22FF0E0E957FE4F808320936601E1EC3F
S1130560F0E08081806280830895CF93DF93EC0173
S11305708881882331F021960E94A00289918111FB
S1130580FBCFDF91CF910895BB274A3031F49923F3
S113059022F4BDE2909581959F4F0C94D002BB2725
S11305A0FB015527AA27880F991FAA1FA41710F02B
S11305B0A41B83955051B9F7A05DAA3308F0A95D37
S11305C0A193009779F7B111B1931192CB010C94D7
S11305D0E902DC01FC01672F71917723E1F732977F
S11305E004C07C916D9370836291AE17BF07C8F30A
S10905F00895F894FFCF0A
S11305F6202020202020202020200076616C756594
S11306063A006B65793A2020202020202070617200
S11306163A004144432076616C756520696E206416
S11306266563696D616C3A20000D0A002020202064
S11306362020004E6F6E6500557000446F776E0083
S11306464C6566740052696768740053656C65632B
S105065674002A
S9030000FC
